{
  "contractName": "CourseMarketplace",
  "abi": [
    {
      "inputs": [],
      "stateMutability": "nonpayable",
      "type": "constructor"
    },
    {
      "inputs": [
        {
          "internalType": "bytes32",
          "name": "courseHash",
          "type": "bytes32"
        }
      ],
      "name": "CourseAlreadyOwned",
      "type": "error"
    },
    {
      "inputs": [],
      "name": "OnlyOwner",
      "type": "error"
    },
    {
      "inputs": [
        {
          "internalType": "bytes32",
          "name": "",
          "type": "bytes32"
        }
      ],
      "name": "allOwnedCourses",
      "outputs": [
        {
          "internalType": "uint256",
          "name": "id",
          "type": "uint256"
        },
        {
          "internalType": "uint256",
          "name": "price",
          "type": "uint256"
        },
        {
          "internalType": "bytes32",
          "name": "proof",
          "type": "bytes32"
        },
        {
          "internalType": "address",
          "name": "owner",
          "type": "address"
        },
        {
          "internalType": "enum CourseMarketplace.State",
          "name": "state",
          "type": "uint8"
        }
      ],
      "stateMutability": "view",
      "type": "function",
      "constant": true
    },
    {
      "inputs": [
        {
          "internalType": "bytes16",
          "name": "courseID",
          "type": "bytes16"
        },
        {
          "internalType": "bytes32",
          "name": "proof",
          "type": "bytes32"
        }
      ],
      "name": "purchaseCourse",
      "outputs": [],
      "stateMutability": "payable",
      "type": "function",
      "payable": true
    },
    {
      "inputs": [
        {
          "internalType": "address",
          "name": "newOwner",
          "type": "address"
        }
      ],
      "name": "transferOwnership",
      "outputs": [],
      "stateMutability": "nonpayable",
      "type": "function"
    },
    {
      "inputs": [],
      "name": "getCourseCount",
      "outputs": [
        {
          "internalType": "uint256",
          "name": "",
          "type": "uint256"
        }
      ],
      "stateMutability": "view",
      "type": "function",
      "constant": true
    },
    {
      "inputs": [
        {
          "internalType": "uint256",
          "name": "id",
          "type": "uint256"
        }
      ],
      "name": "getCourseHashAtIndex",
      "outputs": [
        {
          "internalType": "bytes32",
          "name": "",
          "type": "bytes32"
        }
      ],
      "stateMutability": "view",
      "type": "function",
      "constant": true
    },
    {
      "inputs": [
        {
          "internalType": "bytes32",
          "name": "courseHash",
          "type": "bytes32"
        }
      ],
      "name": "getCourseByHash",
      "outputs": [
        {
          "components": [
            {
              "internalType": "uint256",
              "name": "id",
              "type": "uint256"
            },
            {
              "internalType": "uint256",
              "name": "price",
              "type": "uint256"
            },
            {
              "internalType": "bytes32",
              "name": "proof",
              "type": "bytes32"
            },
            {
              "internalType": "address",
              "name": "owner",
              "type": "address"
            },
            {
              "internalType": "enum CourseMarketplace.State",
              "name": "state",
              "type": "uint8"
            }
          ],
          "internalType": "struct CourseMarketplace.Course",
          "name": "",
          "type": "tuple"
        }
      ],
      "stateMutability": "view",
      "type": "function",
      "constant": true
    },
    {
      "inputs": [],
      "name": "getContractOwner",
      "outputs": [
        {
          "internalType": "address",
          "name": "",
          "type": "address"
        }
      ],
      "stateMutability": "view",
      "type": "function",
      "constant": true
    }
  ],
  "bytecode": "0x608060405234801561001057600080fd5b506100203361002560201b60201c565b610069565b80600360006101000a81548173ffffffffffffffffffffffffffffffffffffffff021916908373ffffffffffffffffffffffffffffffffffffffff16021790555050565b610c6f806100786000396000f3fe6080604052600436106100705760003560e01c80636d11290b1161004e5780636d11290b1461011e57806396cfda061461015b578063d76821cb14610186578063f2fde38b146101a257610070565b8063196531e014610075578063442890d5146100b657806362e4e6ac146100e1575b600080fd5b34801561008157600080fd5b5061009c60048036038101906100979190610805565b6101cb565b6040516100ad9594939291906109fd565b60405180910390f35b3480156100c257600080fd5b506100cb61022e565b6040516100d89190610991565b60405180910390f35b3480156100ed57600080fd5b5061010860048036038101906101039190610805565b610258565b60405161011591906109c7565b60405180910390f35b34801561012a57600080fd5b506101456004803603810190610140919061082e565b610385565b60405161015291906109ac565b60405180910390f35b34801561016757600080fd5b506101706103a2565b60405161017d91906109e2565b60405180910390f35b6101a0600480360381019061019b91906107c9565b6103ac565b005b3480156101ae57600080fd5b506101c960048036038101906101c491906107a0565b6105a3565b005b60006020528060005260406000206000915090508060000154908060010154908060020154908060030160009054906101000a900473ffffffffffffffffffffffffffffffffffffffff16908060030160149054906101000a900460ff16905085565b6000600360009054906101000a900473ffffffffffffffffffffffffffffffffffffffff16905090565b6102606106cc565b60008060008481526020019081526020016000206040518060a00160405290816000820154815260200160018201548152602001600282015481526020016003820160009054906101000a900473ffffffffffffffffffffffffffffffffffffffff1673ffffffffffffffffffffffffffffffffffffffff1673ffffffffffffffffffffffffffffffffffffffff1681526020016003820160149054906101000a900460ff16600281111561033e577f4e487b7100000000000000000000000000000000000000000000000000000000600052602160045260246000fd5b6002811115610376577f4e487b7100000000000000000000000000000000000000000000000000000000600052602160045260246000fd5b81525050905080915050919050565b600060016000838152602001908152602001600020549050919050565b6000600254905090565b600082336040516020016103c1929190610965565b6040516020818303038152906040528051906020012090506103e28161061b565b1561042457806040517f2467c83800000000000000000000000000000000000000000000000000000000815260040161041b91906109ac565b60405180910390fd5b60006002600081548092919061043990610ae7565b9190505590508160016000838152602001908152602001600020819055506040518060a001604052808281526020013481526020018481526020013373ffffffffffffffffffffffffffffffffffffffff168152602001600060028111156104ca577f4e487b7100000000000000000000000000000000000000000000000000000000600052602160045260246000fd5b81525060008084815260200190815260200160002060008201518160000155602082015181600101556040820151816002015560608201518160030160006101000a81548173ffffffffffffffffffffffffffffffffffffffff021916908373ffffffffffffffffffffffffffffffffffffffff16021790555060808201518160030160146101000a81548160ff02191690836002811115610595577f4e487b7100000000000000000000000000000000000000000000000000000000600052602160045260246000fd5b021790555090505050505050565b6105ab61022e565b73ffffffffffffffffffffffffffffffffffffffff163373ffffffffffffffffffffffffffffffffffffffff161461060f576040517f5fc483c500000000000000000000000000000000000000000000000000000000815260040160405180910390fd5b61061881610688565b50565b60003373ffffffffffffffffffffffffffffffffffffffff1660008084815260200190815260200160002060030160009054906101000a900473ffffffffffffffffffffffffffffffffffffffff1673ffffffffffffffffffffffffffffffffffffffff16149050919050565b80600360006101000a81548173ffffffffffffffffffffffffffffffffffffffff021916908373ffffffffffffffffffffffffffffffffffffffff16021790555050565b6040518060a00160405280600081526020016000815260200160008019168152602001600073ffffffffffffffffffffffffffffffffffffffff16815260200160006002811115610746577f4e487b7100000000000000000000000000000000000000000000000000000000600052602160045260246000fd5b81525090565b60008135905061075b81610bdd565b92915050565b60008135905061077081610bf4565b92915050565b60008135905061078581610c0b565b92915050565b60008135905061079a81610c22565b92915050565b6000602082840312156107b257600080fd5b60006107c08482850161074c565b91505092915050565b600080604083850312156107dc57600080fd5b60006107ea85828601610761565b92505060206107fb85828601610776565b9150509250929050565b60006020828403121561081757600080fd5b600061082584828501610776565b91505092915050565b60006020828403121561084057600080fd5b600061084e8482850161078b565b91505092915050565b61086081610a50565b82525050565b61086f81610a50565b82525050565b61088661088182610a50565b610b30565b82525050565b61089d61089882610a62565b610b42565b82525050565b6108ac81610a8e565b82525050565b6108bb81610a8e565b82525050565b6108ca81610ad5565b82525050565b6108d981610ad5565b82525050565b60a0820160008201516108f56000850182610947565b5060208201516109086020850182610947565b50604082015161091b60408501826108a3565b50606082015161092e6060850182610857565b50608082015161094160808501826108c1565b50505050565b61095081610acb565b82525050565b61095f81610acb565b82525050565b6000610971828561088c565b6010820191506109818284610875565b6014820191508190509392505050565b60006020820190506109a66000830184610866565b92915050565b60006020820190506109c160008301846108b2565b92915050565b600060a0820190506109dc60008301846108df565b92915050565b60006020820190506109f76000830184610956565b92915050565b600060a082019050610a126000830188610956565b610a1f6020830187610956565b610a2c60408301866108b2565b610a396060830185610866565b610a4660808301846108d0565b9695505050505050565b6000610a5b82610aab565b9050919050565b60007fffffffffffffffffffffffffffffffff0000000000000000000000000000000082169050919050565b6000819050919050565b6000819050610aa682610bc9565b919050565b600073ffffffffffffffffffffffffffffffffffffffff82169050919050565b6000819050919050565b6000610ae082610a98565b9050919050565b6000610af282610acb565b91507fffffffffffffffffffffffffffffffffffffffffffffffffffffffffffffffff821415610b2557610b24610b5e565b5b600182019050919050565b6000610b3b82610b4c565b9050919050565b6000819050919050565b6000610b5782610bbc565b9050919050565b7f4e487b7100000000000000000000000000000000000000000000000000000000600052601160045260246000fd5b7f4e487b7100000000000000000000000000000000000000000000000000000000600052602160045260246000fd5b60008160601b9050919050565b60038110610bda57610bd9610b8d565b5b50565b610be681610a50565b8114610bf157600080fd5b50565b610bfd81610a62565b8114610c0857600080fd5b50565b610c1481610a8e565b8114610c1f57600080fd5b50565b610c2b81610acb565b8114610c3657600080fd5b5056fea26469706673582212208ba152c1f813bf8ec86011caa634a9f12564f7606665a80c9930932e12462f8d64736f6c63430008040033",
  "immutableReferences": {},
  "source": "// SPDX-License-Identifier: MIT\npragma solidity >=0.4.22 <0.9.0;\n\ncontract CourseMarketplace {\n    enum State {\n        Purchased,\n        Activated,\n        Deactivated\n    }\n\n    struct Course {\n        uint id; // 32\n        uint price; // 32\n        bytes32 proof; // 32\n        address owner; // 20\n        State state; // 1\n    }\n\n    // mapping of course hash to course data\n    mapping(bytes32 => Course) public allOwnedCourses;\n\n    // mapping of courseID to course hash\n    mapping(uint => bytes32) private ownedCourseHashes;\n\n    uint private totalOwnedCourses;\n\n    address payable private owner;\n\n    error CourseAlreadyOwned(bytes32 courseHash);\n\n    // Only owner has access to this function\n    error OnlyOwner();\n\n    modifier onlyOwner() {\n        if (msg.sender != getContractOwner()) {\n            revert OnlyOwner();\n        }\n        _;\n    }\n\n    constructor() {\n        setNewContractOwner(msg.sender);\n    }\n\n    function purchaseCourse(bytes16 courseID, bytes32 proof) external payable {\n        bytes32 courseHash = keccak256(abi.encodePacked(courseID, msg.sender));\n\n        if (userOwnsCourse(courseHash)) {\n            revert CourseAlreadyOwned(courseHash);\n        }\n\n        uint id = totalOwnedCourses++;\n        ownedCourseHashes[id] = courseHash;\n\n        allOwnedCourses[courseHash] = Course({\n            id: id,\n            price: msg.value,\n            proof: proof,\n            owner: msg.sender,\n            state: State.Purchased\n        });\n    }\n\n    function transferOwnership(address newOwner) external onlyOwner {\n        setNewContractOwner(newOwner);\n    }\n\n    function getCourseCount() external view returns (uint) {\n        return totalOwnedCourses;\n    }\n\n    function getCourseHashAtIndex(uint id) external view returns (bytes32) {\n        return ownedCourseHashes[id];\n    }\n\n    function getCourseByHash(\n        bytes32 courseHash\n    ) external view returns (Course memory) {\n        Course memory course = allOwnedCourses[courseHash];\n        return course;\n    }\n\n    function getContractOwner() public view returns (address) {\n        return owner;\n    }\n\n    function setNewContractOwner(address newOwner) private {\n        owner = payable(newOwner);\n    }\n\n    function userOwnsCourse(bytes32 courseHash) private view returns (bool) {\n        return allOwnedCourses[courseHash].owner == msg.sender;\n    }\n}\n",
  "sourcePath": "/Users/austin/Projects/web3/web3-marketplace/contracts/CourseMarketplace.sol",
  "compiler": {
    "name": "solc",
    "version": "0.8.4+commit.c7e474f2.Emscripten.clang"
  },
  "schemaVersion": "3.4.15",
  "updatedAt": "2023-08-31T18:24:59.648Z",
  "networkType": "ethereum",
  "devdoc": {
    "kind": "dev",
    "methods": {},
    "version": 1
  },
  "userdoc": {
    "kind": "user",
    "methods": {},
    "version": 1
  }
}